:107E0000F894A89514B714BE88E18093600089E2C5
:107E10008093600018B817B8259A82E0DED011FF71
:107E200002C01BEB10C08FEF93E0D0D0182F8C3C1A
:107E300051F08A3A31F08FEF93E06AEABFD01B3BF2
:107E400011F00C94000084E0C8D080EF8093BA0059
:107E500084EC8093BC00EE24DD2490E04CE8B42E4A
:107E600034EDC32E8091BC0087FFFCCF8091B90018
:107E7000887F19F4C092BC009AC0803619F4DD24C2
:107E800090E095C0803809F08EC08BEF8E1508F415
:107E900083C0D7FC13C03091BB00ED2DF0E0EE5F46
:107EA000FE4F308328E0892F8327969580FD9B2500
:107EB000215011F03695F7CFD39479C0F090BB00E4
:107EC000F91609F074C01C3C21F08FEF93E06CECC4
:107ED00075D0F999FECF8E2D90E09695982F882732
:107EE0009795879590930101809300011127E09168
:107EF0000001F0910101C2E0D1E080E890E0103093
:107F000091F40091570001700130D9F303E0009320
:107F10005700E8950091570001700130D9F301E155
:107F200000935700E895099019900091570001704F
:107F30000130D9F301E000935700E8951395103410
:107F400098F011270091570001700130D9F305E036
:107F500000935700E8950091570001700130D9F364
:107F600001E100935700E8953296029709F0C7CFD8
:107F7000103011F00296E5CF1124E3948CEFE8164F
:107F800011F09F2D07C08FEF93E06AEA17D09F2D65
:107F9000EE24EA941CEC0BC08091BB008F3F39F4B7
:107FA0000C94000004C0883A11F4E092BB00809168
:107FB000BC0080688093BC00A89554CFF999FECF8F
:107FC00092BD81BD60BDFA9AF99A0895F999FECFE4
:107FD00092BD81BDF89A80B50895282F30E240E91E
:107FE00051E00BC085B1832785B988EE93E0FA0193
:107FF0003197F1F70197D9F72150222399F7089586
:0400000300007E007B
:00000001FF
